:020000040800F2
:1000000058C3002049010008570B00084F0B000897
:10001000530B000899040008751500080000000043
:10002000000000000000000000000000150D0008A6
:100030008D09000800000000DD0B00086D0E0008AF
:100040006301000863010008630100086301000800
:1000500063010008630100086301000863010008F0
:1000600063010008630100086301000863010008E0
:1000700063010008630100086301000863010008D0
:1000800063010008630100086301000863010008C0
:1000900019150008630100086301000863010008E6
:1000A00063010008630100086301000863010008A0
:1000B0006301000863010008630100086301000890
:1000C0006301000863010008630100086301000880
:1000D00063010008891200089D12000863010008EE
:1000E0006301000863010008630100086301000860
:1000F0006301000863010008630100086301000850
:10010000630100086301000863010008630100083F
:100110006301000863010008D10E000863010008B4
:10012000630100086301000863010008630100081F
:10013000DFF810D000F09EF900480047A91C000825
:10014000AFF3008058C300200648804706480047A8
:10015000FEE7FEE7FEE7FEE7FEE7FEE7FEE7FEE777
:10016000FEE7FEE7710E0008310100082DE9F041BD
:100170000024061B254671F1000605DA012400273C
:10018000D0EB070067EB0101161E73F1000605DADC
:100190000027D2EB0702012567EB030300F0E2F82A
:1001A00086460E4617469C46AC4204D00025D0EB4E
:1001B000050E65EB010624B10020D2EB000760EBD1
:1001C000030C704631463A466346BDE8F0810000B4
:1001D0000649074A0868504343F239021044086050
:1001E000400870470149086070470000A0000020E7
:1001F0006D4EC641F0B480EA0102D40F4200B2EB6A
:10020000410F02D20246084611464A0042D0C30DB1
:10021000DDB2C1F3C752AD1A202D35DAC1F3160194
:1002200041F4000204B15242C5F1200602FA06F17F
:100230002A411044B3EBD05F23D0C4B1012DA0EB11
:10024000C35009DCF0BC4FF0004202EAC352DBB2FB
:1002500000F5000000F0DFB8400000F1807000EB16
:10026000C350A0F1807040EAD170490009E049080C
:1002700041EAC071A0EBC35000F50000400800EB5C
:10028000C350F0BC00F0BEB86142012202EB410154
:10029000001BF6E7F0BC704781F00041AAE780F050
:1002A0000040A7E730B480EA010202F0004530F0D8
:1002B000004221F0004013D090B1C30DD40DC2F321
:1002C0001601C0F31600E41A41F4000140F40002E4
:1002D0007D34914201D3641C00E04900002C02DA15
:1002E00030BC002070474FF400000023914201D33E
:1002F000891A034340084FEA4101F7D151B19142B5
:1003000002D14FF0004105E002D24FF0010101E0BF
:100310006FF0010103EBC450284430BC00F072B808
:10032000C10F80EAE0700844CA079623002100F05C
:1003300072B800F0004220F00040C10DC0F316007A
:1003400040F400007F2901DA00207047962903DC81
:10035000C1F19601C84001E096398840002AF4D0E6
:10036000404270472DE9F05F0546002092469B46CB
:1003700088460646814640241BE0284641464746BB
:10038000224600F02FF853465A46C01A914110D326
:1003900011461846224600F016F82D1A67EB0108A0
:1003A0004F4622460120002100F00DF817EB00090E
:1003B0004E41201EA4F10104DFDC484631462A46A6
:1003C0004346BDE8F09F202A04DB203A00FA02F100
:1003D000002070479140C2F1200320FA03F3194333
:1003E00090407047202A04DB203A21FA02F00021D5
:1003F000704721FA02F3D040C2F120029140084335
:10040000194670470029A8BF7047401C490008BF23
:1004100020F00100704710B4B0FA80FC00FA0CF034
:1004200050EA010404BF10BC704749B1CCF120046C
:1004300021FA04F411FA0CF118BF012121430843F9
:10044000A3EB0C01CB1D4FEA00614FEA102042BF25
:10045000002010BC704700EBC35010440029A4BF1B
:1004600010BC7047401C490008BF20F0010010BCC0
:1004700070470000064C074D06E0E06840F00103BD
:1004800094E8070098471034AC42F6D3FFF754FEC7
:10049000682600088826000800BFFEE700220C4BF3
:1004A000994202D10023836111E0C1F3130201F0EC
:1004B00000730BB1C2600AE001F080630BB102610E
:1004C00005E001F000630BB1826000E0426070471C
:1004D0007000F030B1F5007F3AD00FDC202928D031
:1004E00006DC01291CD004291DD0082940D11DE0BB
:1004F000402921D0B1F5807F3AD126E0B1F5004FF7
:1005000031D006DCB1F5806F25D0B1F5006F2FD169
:1005100024E0B1F5803F12D0B1F5003F28D111E0C1
:10052000154A826025E00822C26022E01022C260E3
:100530001FE0082202611CE01022026119E008227B
:10054000426016E01022426013E00422426010E094
:10055000042242600DE0042242600AE0002282612F
:100560000422426005E0002282610422426000E031
:1005700000BF00BF704700000101010070B50446D4
:100580000D46002660692840002871D0B5F5807FAF
:100590005CD010DC082D35D006DC012D20D0022DDA
:1005A00024D0042D72D127E0102D31D0202D35D04C
:1005B000402D6BD138E0B5F5004F60D009DCB5F5C2
:1005C000007F49D0B5F5806F4CD0B5F5006F5DD197
:1005D0004FE0B5F5803F2DD0B5F5003F56D12FE067
:1005E000A0682D4900F0D2F8064651E0E0680321EA
:1005F00000F0CCF806464BE0E068082100F0C6F8B1
:10060000064645E0E068102100F0C0F806463FE0ED
:100610002069032100F0BAF8064639E02069082174
:1006200000F0B4F8064633E02069102100F0AEF87F
:1006300006462DE06068082100F0A8F8064627E08D
:100640006068102100F0A2F8064621E0A0690121AF
:1006500000F09CF806461BE0A069022100F096F825
:10066000064615E0A069042100F090F806460FE068
:100670000FE0A069702100F089F8064608E0606884
:10068000042100F083F8064602E0FFE7002600BFE1
:1006900000E00026304670BD0101010010B500F5F4
:1006A000D87303EB01131B6803F004031372137A6E
:1006B00053B900F5D87303EB01131B6840F2FF74C4
:1006C00004EA5353136009E000F5D87303EB0113F8
:1006D0001B686FF0604404EAD303536000F5D873DD
:1006E00003EB01131B6803F00203537200F5D87388
:1006F00003EB01135B6803F00F03937200F5D873EB
:1007000003EB01135B681B0AD37400F5D87303EB8A
:1007100001139B68D37200F5D87303EB01139B6838
:100720001C0A147300F5D87303EB01139B681C0CAF
:10073000547300F5D87303EB01139B681B0E93737E
:1007400000F5D87303EB0113DB68D37300F5D8739E
:1007500003EB0113DB681C0A147400F5D87303EB78
:100760000113DB681C0C547400F5D87303EB011300
:10077000DB681B0E937421B9C36843F02003C36088
:1007800003E0036943F02003036110BD024600202B
:1007900002EA01030BB1012000E0002070470000D5
:1007A00000F0805111B10349086001E0024948603E
:1007B00070470000040402400000024021B10268BA
:1007C00042F00102026004E002684FF6FE731A4034
:1007D0000260704701684FF6FE721140016000210F
:1007E000016041608160C1604B49884208D14A493B
:1007F0000839496841F00F01474A083A51608AE0D8
:1008000045491431884208D143490839496841F0C3
:10081000F001414A083A51607DE03F492831884261
:1008200008D13D490839496841F470613A4A083AAB
:10083000516070E038493C31884208D13649083966
:10084000496841F47041344A083A516063E03249E2
:100850005031884208D130490839496841F4702143
:100860002D4A083A516056E02B496431884208D13C
:1008700029490839496841F47001274A083A51600A
:1008800049E025497831884208D123490839496827
:1008900041F07061204A083A51603CE01F498842AB
:1008A00006D1011F096841F00F01021F116032E0FB
:1008B0001A491431884208D11849091F096841F0C2
:1008C000F001164A121F116025E0144928318842B0
:1008D00008D11249091F096841F470610F4A121FBB
:1008E000116018E00D493C31884208D10B49091FBD
:1008F000096841F47041094A121F11600BE0074971
:100900005031884207D10549091F096841F4702117
:10091000024A121F1160704708000240080402409A
:1009200001460020002201F0805313B1054B1A68E4
:1009300001E0054B1A6802EA01030BB1012000E057
:1009400000207047000402400000024010B5002261
:10095000026847F6F0739A430C6A8B6823430C696C
:1009600023434C6923438C692343CC6923434C6A5A
:1009700023438C6A23431A430260CB6843600B68AD
:1009800083604B68C36010BD4160704770472DE9BC
:10099000F041024600250026002000230024002705
:1009A00091F803C00CF00F0591F803C00CF0100C87
:1009B000BCF1000F03D091F802C04CEA050591F894
:1009C00000C0BCF1000F31D0146800202BE04FF0C4
:1009D000010C0CFA00F3B1F800C00CEA03069E42C9
:1009E00020D183004FF00F0C0CFA03F7BC4305FA3B
:1009F00003FC4CEA040491F803C0BCF1280F06D1B3
:100A00004FF0010C0CFA00FCC2F814C00AE091F897
:100A100003C0BCF1480F05D14FF0010C0CFA00FCEB
:100A2000C2F810C0401C0828D1D31460B1F800C02F
:100A3000BCF1FF0F34DD546800202EE000F1080CFB
:100A40004FF0010808FA0CF3B1F800C00CEA0306F5
:100A50009E4221D183004FF00F0C0CFA03F7BC43E8
:100A600005FA03FC4CEA040491F803C0BCF1280F1A
:100A700005D100F1080C08FA0CF8C2F8148091F8BE
:100A800003C0BCF1480F07D100F1080C4FF001087A
:100A900008FA0CF8C2F81080401C0828CED3546025
:100AA000BDE8F081F0B50A460023002400210025AE
:100AB00000F00046B6F1004F02D11D4EF16901E091
:100AC0001B4E7168C0F3034583B200F44016B6F5BF
:100AD000401F08D121F07061154E766826F07066CF
:100AE000134F7E6012E000F48016B6F5801F06D129
:100AF000032606FA05F4A14341F0706106E0460DB5
:100B0000360103FA06F6B14341F0706122B1460D99
:100B1000360103FA06F6314300F00046B6F1004F05
:100B200002D1034EF16101E0014E7160F0BD0000A1
:100B3000000001400246002093680B400BB10120E9
:100B400000E000207047416170470161704700BFBD
:100B5000FEE700BFFEE7704770B5002100230F22BB
:100B6000C47804B3154C246804F4E064C4F5E0646C
:100B7000210AC1F10403CA40447804FA03F18478DD
:100B80001440214309010E4C0678A155047804F065
:100B90001F050124AC4005786D11AD0005F1E0257D
:100BA000C5F8004109E0047804F01F050124AC40B9
:100BB000044D0678761145F8264070BD0CED00E036
:100BC00000E400E080E100E002490143024A1160D4
:100BD000704700000000FA050CED00E070470000CF
:100BE00029B1064A52690243044B5A6104E0034AA0
:100BF00052698243014B5A61704700000010024065
:100C000029B1064AD2690243044BDA6104E0034A7F
:100C1000D2698243014BDA61704700000010024044
:100C200029B1064A92690243044B9A6104E0034ADF
:100C300092698243014B9A617047000000100240A4
:100C400030B500210022002400232D4D6D6805F0F1
:100C50000C0121B1042905D0082923D105E0294D33
:100C6000056022E0274D05601FE0254D6D6805F405
:100C70007012234D6D6805F48034022505EB924215
:100C80001CB9214D554305600BE01D4D6D6805F401
:100C900000351DB11C4D5543056002E0194D55430B
:100CA000056002E0174D056000BF00BF144D6D6880
:100CB00005F0F0010909154D6B5C0568DD404560E4
:100CC0000F4D6D6805F4E061090A104D6B5C4568D5
:100CD000DD4085600A4D6D6805F46051C90A0B4D11
:100CE0006B5C4568DD40C560054D6D6805F44041AD
:100CF000890B074D6B5CC568B5FBF3F5056130BD2D
:100D00000010024000127A0000093D00000000209F
:100D100010000020704710B500F002F810BD000070
:100D20000CB50020019000903348006840F48030FA
:100D30003149086000BF3048006800F4003000907E
:100D40000198401C0190009818B90198B0F5A06F67
:100D5000F1D12948006800F4003010B10120009062
:100D600001E0002000900098012843D1234800684A
:100D700040F01000214908600846006820F0030098
:100D800008600846006840F0020008601A484068A1
:100D9000194948600846406848600846406840F481
:100DA000806048600846406820F47C10486008462F
:100DB000406840F4E81048600846006840F08070E1
:100DC000086000BF0C48006800F000700028F9D0EF
:100DD0000948406820F00300074948600846406819
:100DE00040F00200486000BF0348406800F00C007B
:100DF0000828F9D10CBD000000100240002002407C
:100E0000042808D14FF0E021096941F004014FF0B6
:100E1000E022116107E04FF0E021096921F00401AF
:100E20004FF0E0221161704710B56FF00400FFF73A
:100E3000E7FF0A4800680A49B0FBF1F00949087069
:100E40000846007800EB4001C1EBC0104FF6FF717F
:100E500001EAC0000449088010BD00008C00002099
:100E600000127A00240000202600002070470000B5
:100E700010B51348006840F00100114908600846A9
:100E80004068104908400E494860084600680E490D
:100E900008400B4908600846006820F4802008607C
:100EA0000846406820F4FE0048604FF41F00886048
:100EB000FFF731FF4FF000600449086010BD0000EB
:100EC000001002400000FFF8FFFFF6FE08ED00E012
:100ED00010B50121084800F05BF801280AD1012172
:100EE000054800F03DF805480068401C03490860CB
:100EF00000F082FF10BD0000001000401400002030
:100F00001FB501211020FFF77BFE40F2E730ADF85E
:100F100008004720ADF804000020ADF80A00ADF845
:100F2000060001A90D4800F05DF936208DF800009B
:100F300000208DF801008DF8020001208DF80300DB
:100F40006846FFF709FE01221146044800F031F817
:100F50000121024800F007F81FBD0000001000400A
:100F6000CA430282704721B1028842F00102028026
:100F700004E002884FF6FE731A40028070471AB1EF
:100F800083890B43838102E083898B43838170478C
:100F900030B50246002000230024158A05EA01032B
:100FA000958905EA010413B10CB1012000E000208D
:100FB00030BD1AB183890B43838102E083898B435F
:100FC0008381704770B5002400220023058C4FF602
:100FD000FE7635400584028C8388048B4FF68F752E
:100FE0002C40B51E2C400D882C43751E2A400D89BF
:100FF0002A434D882A43144DA8420BD0134DA842D2
:1010000008D0134DA84205D0124DA84202D0124D6F
:10101000A84213D14FF6F7752A404D892A434FF65F
:10102000FB752A408D882A434FF6FF652B404FF60B
:10103000FF552B408D892B43CD892B43838004831F
:10104000CD888586028470BD002C014000340140AB
:101050000040014000440140004801400A46002190
:10106000018B4FF6F773194011430183704700005D
:1010700070B5002400220023058C4FF6EF76354032
:101080000584028C8388048B48F6FF752C404FF64C
:10109000FF452C400D884FF6FF7606EA05252C43C8
:1010A0004FF6DF752A400D8906EA05152A434D885B
:1010B00006EA05152A43154DA84202D0144DA84250
:1010C0001DD14FF67F752A404D894FF6FF7606EA0F
:1010D00005152A434FF6BF752A408D8806EA051587
:1010E0002A434FF6FF352B404FF2FF752B408D8979
:1010F00006EA85052B43CD8906EA85052B438380C7
:101100000483CD880587028470BD0000002C014057
:10111000003401400A460021018B4FF2FF73194051
:101120004FF6FF7303EA022319430183704700005F
:1011300070B5002400220023058C4FF6FF66354071
:101140000584028C8388848B4FF68F752C404FF674
:10115000FC752C400D882C434FF6FF552A400D8915
:101160004FF6FF7606EA05252A434D8806EA05254F
:101170002A43154DA84202D0144DA8421DD14FF26A
:10118000FF752A404D894FF6FF7606EA05252A436A
:101190004FF6FF352A408D8806EA05252A434EF68C
:1011A000FF752B404DF6FF752B408D8906EA05151E
:1011B0002B43CD8906EA05152B4383808483CD8894
:1011C0008587028470BD0000002C0140003401407E
:1011D0000A460021818B4FF6F77319401143818332
:1011E00070470000002202881D4B98420ED01D4B14
:1011F00098420BD0B0F1804F08D01B4B984205D0DD
:101200001A4B984202D01A4B984204D14FF68F7372
:101210001A404B881A43174B984207D0164B9842F6
:1012200004D04FF6FF431A40CB881A4302808B88C4
:1012300083850B8803850A4B98420BD0094B984253
:1012400008D00E4B984205D00D4B984202D00D4B62
:10125000984201D10B7A03860123838270470000F4
:10126000002C014000340140000400400008004010
:10127000000C0040001000400014004000400140FD
:10128000004401400048014010B540F22551024899
:1012900000F090F810BD00000038014010B540F299
:1012A0002551154800F086F8144800681449086074
:1012B000114800F02BF9044634B1012C0BD0052C59
:1012C0000FD0062C15D110E000200E490870012027
:1012D0000D4908700DE001200A4908700A4908709C
:1012E00007E002200949087003E00120074908705F
:1012F00000BF00BF10BD00000044004014000020EB
:101300001C000020850000208600002084000020B2
:1013100000B587B001218804FFF772FC0121042089
:10132000FFF77EFC0420ADF8180018208DF81B0094
:1013300003208DF81A0006A91C48FFF728FB082097
:10134000ADF8180004208DF81B0006A91748FFF718
:101350001EFB4FF4E13002900020ADF80C00ADF818
:101360000E00ADF81000ADF814000C20ADF812001E
:1013700002A90F4800F05EF801210D4800F029F89D
:10138000012240F225510A4800F02FF826208DF85E
:10139000040002208DF805008DF8060001208DF86C
:1013A000070001A8FFF7D8FB07B000BD0008014007
:1013B0000044004010B50022002340F66A14A14208
:1013C00000D100BF0A1201249440A3B2DC43048080
:1013D00010BD21B1828942F40052828104E08289E9
:1013E0004DF6FF731A4082817047F0B50346002422
:1013F00000260025002040F66A17B94200D100BF40
:101400001846C1F3421401F01F06012707FA06F53A
:10141000012C01D10C3004E0022C01D1103000E08D
:1014200014301AB107682F43076002E00768AF4322
:101430000760F0BD2DE9F04786B005460E46002452
:10144000A24600BFA1460027B08900B100BF2F46C9
:101450002C8A4CF6FF700440F08804432C82AC893F
:101460004EF6F3100440B08831890843718908436F
:101470000443AC81AC8A4FF6FF400440B08904437A
:10148000AC8201A8FFF7DCFB1F48874202D1DDF8E0
:1014900010A001E0DDF80CA0A88900F4004040B1E4
:1014A0000AEBCA0000EB0A1031684900B0FBF1F802
:1014B00007E00AEBCA0000EB0A1031688900B0FBB4
:1014C000F1F86420B8FBF0F004012009642101FB6D
:1014D0001089A88900F4004040B1322000EBC90017
:1014E000B0FBF1F000F00700044308E0322000EB0D
:1014F00009106421B0FBF1F000F00F0004432C81CF
:1015000006B0BDE8F0870000003801400146888839
:10151000C0F308007047000000B585B010480068AF
:101520001049086002211048FFF728F8B0B10421E3
:101530000D48FEF7CFFF0D490B48FEF7AFFF6A4697
:1015400000210948FFF7AAF80098A0F2012020B96D
:101550006946074800F010F800BF00BF05B000BDA5
:101560001400002020000020006400400800003229
:10157000A400002000BFFEE72DE9F04104460D461F
:10158000A97B687B41EA002000B2217C24F811008D
:10159000207C401C2074207C03281FDDB4F900004F
:1015A000FEF7BEFE0746012609E034F91600FEF7F5
:1015B000B7FE80463946FEF71DFE0746761C042E10
:1015C000F3DB4FF081413846FEF76CFE0646FEF72E
:1015D000B0FE00B260820020207400BF287BE97A50
:1015E00040EA0120132190FBF1F000B2A083B4F98E
:1015F0001C10B4F91E00081A282804DDE08D401ED6
:1016000000B2E0850BE0B4F91C10B4F91E00081A12
:1016100010F1280F03DAE08D401C00B2E085B4F928
:101620002E00122802DD0020E08505E0B4F92E002E
:10163000002801DA1220E085A08BE18D01EBC102C8
:1016400002EB411100EB410000B22086A18BE18347
:10165000BDE8F08102E008C8121F08C1002AFAD1D3
:1016600070477047002001E001C1121F002AFBD122
:101670007047000010B500F049F8002013E00B4956
:10168000095C01290DD10021084A11540849097843
:10169000884203D00121074A117002E00221054A65
:1016A0001170411CC8B20528E9DB10BD28000020DC
:1016B0007600002084000020054A116805E00A1821
:1016C000034B1B689A4200D200E0F8E700BF704766
:1016D0001400002070B505460E460B480068FEF762
:1016E00081FD00BFFEF774FD0A2190FBF1F201FBC2
:1016F0001200C4B2AC42F5DBB442F3DC0220FFF7C7
:10170000DBFF204670BD00001400002070B50120F2
:1017100000F0DCF86E20FFF7CFFF022000F0D6F8D3
:101720003720FFF7C9FF01202CE0C0EBC001174AAA
:1017300002EBC102D2E90C12C0EBC003134C04EB64
:10174000C304D4E90A35CC1A62EB0502104951F8FA
:10175000201001F2DC510023091B934103DA01221E
:10176000411E0C4B5A54C0EBC001084A02EBC102A7
:10177000D2E90C12C0EBC003044C04EBC303C3E971
:101780000A12401C0628D0DB70BD000008BE0020F5
:10179000300000202800002038B5414841498863C6
:1017A0004114404881873E4901648914A0F84410DF
:1017B0003B483C4908674FF400413A48A0F8741090
:1017C000374981674FF48041A0F87C10364835498D
:1017D000C1F8A80080213348A0F8AC103249C0F805
:1017E000B0104021A0F8B4102F482E49C1F8E000F5
:1017F00041152C48A0F8E4102B49C0F8E8108915D1
:10180000A0F8EC1029482749C1F8180141152548CE
:10181000A0F81C112549C0F820118915A0F8241141
:10182000002401211C20FFF7FBF9012417E0C4EB81
:10183000C4001C4901EBC0008088ADF80000042002
:101840008DF8030003208DF80200C4EBC401154A93
:1018500052F831006946FFF79AF8601CC4B2062CB2
:10186000E5DB012418E0C4EBC4000E4901EBC00025
:101870008089ADF8000010208DF8030003208DF85A
:101880000200C4EBC401074A02EBC1018868694643
:10189000FFF77DF8601CC4B2062CE4DB38BD000005
:1018A000000C014008BE002000100140000801406B
:1018B00010B5FFF771FF032000F008F88220FFF752
:1018C000FBFE042000F002F810BD00002DE9F041FD
:1018D00005460124C1E0012D06D0022D17D0032DAD
:1018E00044D0042D79D14EE0C4EBC4005D4901EB36
:1018F000C000D0E904633246204600F0BFF8C4EBD4
:10190000C402584B03EBC202C2E9060165E0C4EB16
:10191000C400544901EBC000D0E9046332462046BC
:1019200000F0ACF8C4EBC4024E4B03EBC202C2E9B8
:101930000801C4EBC400194601EBC000D0E9061051
:10194000C4EBC40203EBC203D3E908238E1840EBB7
:101950000301022200233046FEF708FCC4EBC40258
:10196000404B03EBC202C2E90C0136E000221346F1
:10197000204600F083F8C4EBC4023A4B03EBC202EA
:10198000C2E9060129E000221346204600F076F85D
:10199000C4EBC402334B03EBC202C2E90801C4EB3F
:1019A000C400194601EBC000D0E90630C4EBC40105
:1019B0002C4A02EBC102D2E908125E1840EB020188
:1019C000022200233046FEF7D1FBC4EBC402254BB4
:1019D00003EBC202C2E9040100BF00BF022D3AD1ED
:1019E000062C37D2DFE804F036030D18222CC4EBA6
:1019F000C4001C4901EBC001D1E90C011A4A03C221
:101A000000BFC4EBC400174901EBC000D0E90C10C3
:101A1000164AC2E9001000BFC4EBC400114901EB33
:101A2000C001D1E90C01124A03C200BFC4EBC400DB
:101A30000C4901EBC001D1E90C010E4A03C200BF01
:101A4000C4EBC400074901EBC001D1E90C010A4A0B
:101A500003C200BF00BF601CC4B2062CFFF63BAF40
:101A6000BDE8F08108BE00204800002050000020A2
:101A70005800002060000020680000202DE9F04799
:101A800004461746984600210D460E46C4EBC40294
:101A90003E4B03EBC2029188C4EBC40253F8320000
:101AA000FFF753F8C4EBC402384B03EBC202918931
:101AB000C4EBC40203EBC2029068FFF744F800BF16
:101AC000C4EBC402314B03EBC2029188C4EBC402E5
:101AD00053F83200FFF72EF80028F1D181462FE0AD
:101AE000C4EBC402294B03EBC2029189C4EBC402CC
:101AF00003EBC2029068FFF728F86D197641C4EB3A
:101B0000C402224B03EBC2029189C4EBC40203EB73
:101B1000C2029068FFF717F8C4EBC4021B4B03EB3B
:101B2000C2029188C4EBC40253F83200FFF702F8F6
:101B300010B16D1C46F1000609F1010000F0FF092B
:101B4000B9F1180FCCDBC4EBC402104B03EBC2029B
:101B50009189C4EBC40203EBC2029068FEF7F5FF63
:101B60004FF400035D40C4EBC402084B03EBC20218
:101B70009189C4EBC40203EBC2029068FEF7E3FF55
:101B8000E81B66EB0801BDE8F087000008BE0020F6
:101B900010B502211148007800F028F810480078AC
:101BA000401C0F49087008460078052803D103201F
:101BB0000C49087010BD00BF04210020FFF78AFD0A
:101BC00004460948005D0028F6D10448047001214C
:101BD000204600F00BF800BFECE700007600002084
:101BE000750000208400002070000020024A11547B
:101BF0000122024B1A7070477000002087000020FD
:101C000010B5002423E01348005D28B9B42212491E
:101C1000204600F05DF918E00E48005D01280BD168
:101C2000B4220D49204600F053F90C48025D0C49DE
:101C3000204600F04DF908E00648005D022804D176
:101C4000B4220749204600F043F9601CC4B2052CB9
:101C5000D9DB10BD700000207F000020770000203D
:101C60007C00002010B5002405E000212046FFF78D
:101C7000BDFF601CC4B2052CF7DB10BD10B5FFF72B
:101C8000F1FF00BF04210020FFF724FD04460548B2
:101C900000788442F6D00348047001212046FFF703
:101CA000A5FF10BD760000204FF4A060FEF78CFF6A
:101CB000FFF726F9FFF7B8F800F068F800F02EF902
:101CC000FFF726FBFFF7F4FD50E02948007820B12C
:101CD000002027490870FFF793FF2648006808B9DD
:101CE000FFF7C8FC2448007870B100202249087032
:101CF0002248007818B101202149087004E0002032
:101D00001F490870FFF7AEFF1D48007801280CD16D
:101D100000201B490870FFF7B1FF1A4800681A49F4
:101D20000860C8201349086020E0154800780228A0
:101D30000CD1002012490870FFF72AFF11480068F3
:101D400011490860C8200B4908600FE00C48007872
:101D500003280BD100200A490870FFF719FF094832
:101D6000006809490860C82002490860ADE7000022
:101D700087000020880000208600002085000020C9
:101D800084000020140000201800002038B5012134
:101D90000820FEF745FF4FF44060ADF80000032037
:101DA0008DF8020010208DF8030069461148FEF7F7
:101DB000EEFD00241BE04FF480610E48FEF7C5FEE7
:101DC0004FF400610B48FEF7C0FE3220FFF774FCB1
:101DD0004FF480610748FEF7B6FE4FF400610548F6
:101DE000FEF7B1FE3220FFF767FC601CC4B2052C81
:101DF000E1DB38BD000C014010B52D48007870B112
:101E00002C4801682C48006800F6C410814206D3B3
:101E100001202A490870274800682749086025489A
:101E200000684FF49671B0FBF1F201FB120078BB31
:101E30002048006822490968401AC82811D34FF485
:101E400080612048FEF776FE28B14FF480611D487E
:101E5000FEF779FE0AE04FF480611A48FEF775FE3E
:101E600004E04FF480611748FEF76DFE11480068EA
:101E700015490968401AC82810D34FF40061114869
:101E8000FEF758FE28B14FF400610E48FEF75BFEE6
:101E900004E04FF400610B48FEF757FE0B48006862
:101EA00020B10A480068401E0849086010BD0000C3
:101EB000850000201400002018000020840000206D
:101EC0001C000020000C01402000002088000020A1
:101ED00070B504460D461646052C1DD2DFE804F009
:101EE00003080D1217003146284600F015F913E0DB
:101EF0003146284600F098F90EE03146284600F0B9
:101F000019FA09E03146284600F0A0FA04E031460B
:101F1000284600F023FB00BF00BF70BD00B593B0A2
:101F200001210720FEF76CFE01210920FEF778FE53
:101F300001210846FEF754FE01216A48FEF7B2FD72
:101F400001216948FEF7AEFD01216848FEF7AAFDB0
:101F50004FF4EC70ADF8480018208DF84B000320CA
:101F60008DF84A0012A96248FEF711FD5920ADF81C
:101F700040000020ADF83C00ADF84200ADF83E0056
:101F80000FA94FF08040FFF72DF90FA95948FFF72F
:101F900029F90FA95848FFF725F96020ADF82C0062
:101FA0000120ADF82E000020ADF83200ADF834006D
:101FB0000BA94FF08040FFF75BF80821C806FFF738
:101FC000A9F80BA94B48FEF7FDFF08214948FFF788
:101FD00045F80BA94848FEF7F5FF08214648FFF7EA
:101FE0003DF80BA94448FFF743F808214248FFF7A2
:101FF00091F80BA94048FFF79BF808213E48FFF7EE
:10200000E7F83E48FEF7E6FB3D4800903D4801906A
:10201000102002902A200390002004908020059038
:102020004000069080000790002008904FF4005078
:10203000099000200A9069463048FEF787FC2F4837
:102040001438FEF7C7FB2B48343000902E4801901F
:1020500069462A481438FEF779FC28487838FEF794
:10206000B9FB254834300090284801906946234840
:102070007838FEF76BFC21483C38FEF7ABFB1E4876
:10208000383000902248019069461C483C38FEF7E1
:102090005DFC1A482838FEF79DFB17483C3000903D
:1020A0001C480190694615482838FEF74FFC01226C
:1020B00091020805FEF763FF012251020D48FEF769
:1020C0005EFF012251020C48FEF759FF01229102E6
:1020D0000948FEF754FF0122D1020748FEF74FFFDF
:1020E00013B000BD000230000003180000081A0001
:1020F000000C014000040040000800408000024045
:1021000038000040309800205A720020AE2600208F
:10211000844C0020D80000202DE9F04106460F46EF
:1021200007EB47002B2101EBC0001FFA80F80024C9
:102130003AE000250EE07078A84000F0800008B179
:10214000322000E01920354921F81400601C84B2C7
:10215000681CC5B2082DEEDB00250EE03078A840E3
:1021600000F0800008B1322000E019202B4921F84E
:102170001400601C84B2681CC5B2082DEEDB00257B
:102180000EE0B078A84000F0800008B1322000E0F6
:102190001920224921F81400601C84B2681CC5B2C1
:1021A000082DEEDB781E87B2002FC2D1B0788021D7
:1021B00001EA002008B1322000E01920174921F877
:1021C0001400601C84B205E00020144921F81400BA
:1021D000601C84B24445F7DB41461148FEF7D4FB4E
:1021E00001210F48FEF7EAFA01210E48FEF7BBFE77
:1021F00000BF4FF40030FEF793FB0028F9D0002118
:102200000748FEF7DBFA4FF40030FEF7C9FA002169
:102210000448FEF7A8FEBDE8F0810000D8000020C9
:1022200058000240000800402DE9F04106460F46E4
:1022300007EB47002B2101EBC0001FFA80F80024B8
:102240003AE000250EE07078A84000F0800008B168
:10225000322000E01920344921F81400601C84B2B7
:10226000681CC5B2082DEEDB00250EE03078A840D2
:1022700000F0800008B1322000E019202A4921F83E
:102280001400601C84B2681CC5B2082DEEDB00256A
:102290000EE0B078A84000F0800008B1322000E0E5
:1022A0001920214921F81400601C84B2681CC5B2B1
:1022B000082DEEDB781E87B2002FC2D1B0788021C6
:1022C00001EA002008B1322000E01920164921F867
:1022D0001400601C84B205E00020134921F81400AA
:1022E000601C84B24445F7DB41461048FEF74CFBC6
:1022F00001210E48FEF762FA01210D48FEF733FE78
:1023000000BF0220FEF70CFB0028FAD0002107488E
:10231000FEF754FA0220FEF743FA00210448FEF7C4
:1023200022FEBDE8F0810000AE2600200800024039
:10233000000800402DE9F04106460F4607EB470034
:102340002B2101EBC0001FFA80F800243AE00025A1
:102350000EE07078A84000F0800008B1322000E064
:102360001920374921F81400601C84B2681CC5B2DA
:10237000082DEEDB00250EE03078A84000F080004C
:1023800008B1322000E019202D4921F81400601C0A
:1023900084B2681CC5B2082DEEDB00250EE0B078D3
:1023A000A84000F0800008B1322000E01920244944
:1023B00021F81400601C84B2681CC5B2082DEEDB45
:1023C000781E87B2002FC2D1B078802101EA0020A8
:1023D00008B1322000E01920194921F81400601CCE
:1023E00084B205E00020164921F81400601C84B274
:1023F0004445F7DB41461348FEF7C6FA0121114870
:10240000FEF7DCF901211048FEF7ADFD00BF4FF4E7
:102410000050FEF785FA0028F9D000210A48FEF79F
:10242000A2FD00210748FEF7C9F94FF40050FEF75E
:10243000B7F900210448FEF796FDBDE8F0810000E1
:10244000844C002044000240000800402DE9F04187
:1024500006460F4607EB47002B2101EBC0001FFA91
:1024600080F800243AE000250EE07078A84000F0E3
:10247000800008B1322000E01920354921F814000D
:10248000601C84B2681CC5B2082DEEDB00250EE08E
:102490003078A84000F0800008B1322000E0192018
:1024A0002B4921F81400601C84B2681CC5B2082DA9
:1024B000EEDB00250EE0B078A84000F0800008B107
:1024C000322000E01920224921F81400601C84B257
:1024D000681CC5B2082DEEDB781E87B2002FC2D172
:1024E000B078802101EA002008B1322000E01920F4
:1024F000174921F81400601C84B205E0002014493B
:1025000021F81400601C84B24445F7DB41461148B1
:10251000FEF73AFA01210F48FEF750F901210E4863
:10252000FEF721FD00BF4FF40010FEF7F9F9002877
:10253000F9D000210748FEF741F94FF40010FEF7EB
:102540002FF900210448FEF70EFDBDE8F0810000E0
:102550005A7200206C000240000400402DE9F04156
:1025600006460F4607EB47002B2101EBC0001FFA80
:1025700080F800243AE000250EE07078A84000F0D2
:10258000800008B1322000E01920354921F81400FC
:10259000601C84B2681CC5B2082DEEDB00250EE07D
:1025A0003078A84000F0800008B1322000E0192007
:1025B0002B4921F81400601C84B2681CC5B2082D98
:1025C000EEDB00250EE0B078A84000F0800008B1F6
:1025D000322000E01920224921F81400601C84B246
:1025E000681CC5B2082DEEDB781E87B2002FC2D161
:1025F000B078802101EA002008B1322000E01920E3
:10260000174921F81400601C84B205E00020144929
:1026100021F81400601C84B24445F7DB41461148A0
:10262000FEF7B2F901210F48FEF7C8F8012188072B
:10263000FEF799FC00BF4FF00070FEF771F900281B
:10264000F9D000210748FEF7B9F84FF00070FEF707
:10265000A7F800214FF08040FEF785FCBDE8F0812F
:1026600030980020800002408826000800000020EA
:10267000A4000000541600082C270008A400002025
:10268000B4C2000064160008000000000102030448
:1026900001020304060708090204060800000000FE
:1026A000000000000000000000000000000000002A
:1026B000000000000000000000000000000000001A
:1026C0000000000000000000E8030000000000001F
:1026D00000000000000000000000000000000000FA
:1026E00000000000000000000000000000000000EA
:1026F0000000000000000000000000000000006476
:102700006464646400FFFF00000000000001010039
:102710000000000000A24A040000000000000000C9
:0C27200001020304060708090000000085
:0400000508000149A5
:00000001FF
