:020000040800F2
:100000002012002045010008A90B0008A10B0008E0
:10001000A50B0008C30300089D12000800000000A3
:10002000000000000000000000000000950C000827
:10003000F109000800000000310C0008ED0D000877
:100040005F0100085F0100085F0100085F01000810
:100050005F0100085F0100085F0100085F01000800
:100060005F0100085F0100085F0100085F010008F0
:100070005F0100085F0100085F010008CD0600086D
:100080005F0100085F0100085F0100085F010008D0
:10009000511200085F0100085F0100085F010008BD
:1000A0005F0100085F0100085F0100085F010008B0
:1000B0005F0100085F0100085F0100085F010008A0
:1000C0005F0100085F0100085F0100085F01000890
:1000D0005F010008091200081D1200085F010008F6
:1000E0005F0100085F0100085F0100085F01000870
:1000F0005F0100085F0100085F0100085F01000860
:100100005F0100085F0100085F0100085F0100084F
:100110005F0100085F010008510E00085F01000840
:100120005F0100085F0100085F0100085F0100082F
:10013000DFF80CD000F008F900480047B9130008B8
:10014000201200200648804706480047FEE7FEE7E9
:10015000FEE7FEE7FEE7FEE7FEE7FEE7FEE7FEE777
:10016000F10D000831010008F0B480EA0102D40F5B
:100170004200B2EB410F02D20246084611464A0045
:1001800042D0C30DDDB2C1F3C752AD1A202D35DA0E
:10019000C1F3160141F4000204B15242C5F1200638
:1001A00002FA06F12A411044B3EBD05F23D0C4B168
:1001B000012DA0EBC35009DCF0BC4FF0004202EA75
:1001C000C352DBB200F5000000F08FB8400000F130
:1001D000807000EBC350A0F1807040EAD1704900FC
:1001E00009E0490841EAC071A0EBC35000F50000E6
:1001F000400800EBC350F0BC00F06EB86142012231
:1002000002EB4101001BF6E7F0BC704781F00041B2
:10021000AAE780F00040A7E730B480EA010202F0CC
:10022000004530F0004221F0004013D090B1C30DE2
:10023000D40DC2F31601C0F31600E41A41F4000114
:1002400040F400027D34914201D3641C00E0490077
:10025000002C02DA30BC002070474FF4000000236D
:10026000914201D3891A034340084FEA4101F7D173
:1002700051B1914202D14FF0004105E002D24FF05E
:10028000010101E06FF0010103EBC450284430BCD0
:1002900000F022B8C10F80EAE0700844CA07962334
:1002A000002100F022B800F0004220F00040C10D13
:1002B000C0F3160040F400007F2901DA00207047E7
:1002C000962903DCC1F19601C84001E096398840C7
:1002D000002AF4D0404270470029A8BF7047401C54
:1002E000490008BF20F00100704710B4B0FA80FC4C
:1002F00000FA0CF050EA010404BF10BC704749B189
:10030000CCF1200421FA04F411FA0CF118BF0121F8
:1003100021430843A3EB0C01CB1D4FEA00614FEAD8
:10032000102042BF002010BC704700EBC3501044A7
:100330000029A4BF10BC7047401C490008BF20F032
:10034000010010BC70470000064C074D06E0E06855
:1003500040F0010394E8070098471034AC42F6D30C
:10036000FFF7EAFE141C0008341C000870B58C1856
:1003700010F8015B15F0070301D110F8013B2A11B9
:1003800006D110F8012B03E010F8016B01F8016BA6
:100390005B1EF9D12B0705D40023521E0DD401F8A2
:1003A000013BFAE710F8013BCB1A921C03E013F86B
:1003B000015B01F8015B521EF9D5A142D8D30020A0
:1003C00070BD00BFFEE7000000220C4B994202D135
:1003D0000023836111E0C1F3130201F000730BB13C
:1003E000C2600AE001F080630BB1026105E001F038
:1003F00000630BB1826000E0426070477000F03033
:10040000B1F5007F3AD00FDC202928D006DC012985
:100410001CD004291DD0082940D11DE0402921D03D
:10042000B1F5807F3AD126E0B1F5004F31D006DC3E
:10043000B1F5806F25D0B1F5006F2FD124E0B1F573
:10044000803F12D0B1F5003F28D111E0154A8260FB
:1004500025E00822C26022E01022C2601FE00822CC
:1004600002611CE01022026119E00822426016E0DD
:100470001022426013E00422426010E00422426035
:100480000DE0042242600AE0002282610422426000
:1004900005E0002282610422426000E000BF00BF4C
:1004A000704700000101010070B504460D460026AA
:1004B00060692840002871D0B5F5807F5CD010DCE1
:1004C000082D35D006DC012D20D0022D24D0042D9E
:1004D00072D127E0102D31D0202D35D0402D6BD199
:1004E00038E0B5F5004F60D009DCB5F5007F49D0A4
:1004F000B5F5806F4CD0B5F5006F5DD14FE0B5F527
:10050000803F2DD0B5F5003F56D12FE0A0682D4992
:1005100000F0D2F8064651E0E068032100F0CCF884
:1005200006464BE0E068082100F0C6F8064645E0C4
:10053000E068102100F0C0F806463FE02069032182
:1005400000F0BAF8064639E02069082100F0B4F856
:10055000064633E02069102100F0AEF806462DE093
:100560006068082100F0A8F8064627E060681021BE
:1005700000F0A2F8064621E0A069012100F09CF8F5
:1005800006461BE0A069022100F096F8064615E039
:10059000A069042100F090F806460FE00FE0A06982
:1005A000702100F089F8064608E06068042100F038
:1005B00083F8064602E0FFE7002600BF00E00026C1
:1005C000304670BD0101010010B500F5D87303EB92
:1005D00001131B6803F004031372137A53B900F577
:1005E000D87303EB01131B6840F2FF7404EA535302
:1005F000136009E000F5D87303EB01131B686FF07B
:10060000604404EAD303536000F5D87303EB01138D
:100610001B6803F00203537200F5D87303EB011358
:100620005B6803F00F03937200F5D87303EB0113BB
:100630005B681B0AD37400F5D87303EB01139B6846
:10064000D37200F5D87303EB01139B681C0A147373
:1006500000F5D87303EB01139B681C0C547300F571
:10066000D87303EB01139B681B0E937300F5D873CB
:1006700003EB0113DB68D37300F5D87303EB0113AD
:10068000DB681C0A147400F5D87303EB0113DB68F4
:100690001C0C547400F5D87303EB0113DB681B0EBC
:1006A000937421B9C36843F02003C36003E0036976
:1006B00043F02003036110BD0246002002EA01035B
:1006C0000BB1012000E000207047000010B54FF48E
:1006D000003000F057F900286BD04FF4003000F0E4
:1006E0006DF84FF4003000F077F832480078314967
:1006F000497840EA0120C0F30A002F4908802D48BC
:100700004078C0102B49897840EA4110C0F30A00B4
:10071000294948802748807880112649C97840EACD
:1007200081002449097940EA8120C0F30A00224966
:1007300088802048007940101E49497940EAC1105C
:10074000C0F30A001C49C8801A484079001180088B
:10075000087218484079C0F3011048721548807932
:100760001449C97940EA012000B21349488111486F
:10077000007A1049497A40EA012001B20E4881818D
:100780000C48807A0B49C97A40EA012001B20A4834
:10079000C1810848017B084801740648417B06482E
:1007A00041740448807B044988740248C17B024834
:1007B000C17410BD340200204E02002000F08051B0
:1007C00011B10349086001E0024948607047000028
:1007D000040402400000024000F0805111B10349BE
:1007E000086001E0024948607047000004040240CC
:1007F0000000024021B1026842F00102026004E000
:1008000002684FF6FE731A400260704701684FF6A7
:10081000FE72114001600021016041608160C16091
:100820004B49884208D14A490839496841F00F01CB
:10083000474A083A51608AE045491431884208D154
:1008400043490839496841F0F001414A083A51608A
:100850007DE03F492831884208D13D49083949683F
:1008600041F470613A4A083A516070E038493C31CD
:10087000884208D136490839496841F47041344A00
:10088000083A516063E032495031884208D130491A
:100890000839496841F470212D4A083A516056E000
:1008A0002B496431884208D129490839496841F403
:1008B0007001274A083A516049E025497831884259
:1008C00008D123490839496841F07061204A083A43
:1008D00051603CE01F49884206D1011F096841F080
:1008E0000F01021F116032E01A491431884208D109
:1008F0001849091F096841F0F001164A121F1160DA
:1009000025E014492831884208D11249091F096895
:1009100041F470610F4A121F116018E00D493C311B
:10092000884208D10B49091F096841F47041094AFE
:10093000121F11600BE007495031884207D1054969
:10094000091F096841F47021024A121F11607047A3
:10095000080002400804024001460020002201F085
:10096000805313B1054B1A6801E0054B1A6802EA7F
:1009700001030BB1012000E0002070470004024099
:100980000000024001460020002201F0805313B114
:10099000054B1A6801E0054B1A6802EA01030BB126
:1009A000012000E0002070470004024000000240E7
:1009B00010B50022026847F6F0739A430C6A8B6800
:1009C00023430C6923434C6923438C692343CC693B
:1009D00023434C6A23438C6A23431A430260CB6847
:1009E00043600B6883604B68C36010BD4160704713
:1009F00070472DE9F0410246002500260020002323
:100A00000024002791F803C00CF00F0591F803C0F3
:100A10000CF0100CBCF1000F03D091F802C04CEAAE
:100A2000050591F800C0BCF1000F31D0146800201A
:100A30002BE04FF0010C0CFA00F3B1F800C00CEA07
:100A400003069E4220D183004FF00F0C0CFA03F7EF
:100A5000BC4305FA03FC4CEA040491F803C0BCF162
:100A6000280F06D14FF0010C0CFA00FCC2F814C09C
:100A70000AE091F803C0BCF1480F05D14FF0010C1A
:100A80000CFA00FCC2F810C0401C0828D1D3146036
:100A9000B1F800C0BCF1FF0F34DD546800202EE037
:100AA00000F1080C4FF0010808FA0CF3B1F800C08F
:100AB0000CEA03069E4221D183004FF00F0C0CFA82
:100AC00003F7BC4305FA03FC4CEA040491F803C0A5
:100AD000BCF1280F05D100F1080C08FA0CF8C2F897
:100AE000148091F803C0BCF1480F07D100F1080C45
:100AF0004FF0010808FA0CF8C2F81080401C0828D2
:100B0000CED35460BDE8F081F0B50A46002300243E
:100B10000021002500F00046B6F1004F02D11D4E25
:100B2000F16901E01B4E7168C0F3034583B200F424
:100B30004016B6F5401F08D121F07061154E766859
:100B400026F07066134F7E6012E000F48016B6F552
:100B5000801F06D1032606FA05F4A14341F0706117
:100B600006E0460D360103FA06F6B14341F0706126
:100B700022B1460D360103FA06F6314300F0004675
:100B8000B6F1004F02D1034EF16101E0014E7160F8
:100B9000F0BD0000000001404161704701617047F5
:100BA00000BFFEE700BFFEE77047000070B5002100
:100BB00000230F22C47804B3154C246804F4E064C5
:100BC000C4F5E064210AC1F10403CA40447804FA80
:100BD00003F184781440214309010E4C0678A15595
:100BE000047804F01F050124AC4005786D11AD00B8
:100BF00005F1E025C5F8004109E0047804F01F057F
:100C00000124AC40044D0678761145F8264070BDAD
:100C10000CED00E000E400E080E100E00249014367
:100C2000024A1160704700000000FA050CED00E078
:100C30007047000029B1064A52690243044B5A61C9
:100C400004E0034A52698243014B5A617047000035
:100C50000010024029B1064AD2690243044BDA610E
:100C600004E0034AD2698243014BDA617047000015
:100C70000010024029B1064A92690243044B9A616E
:100C800004E0034A92698243014B9A617047000075
:100C900000100240704710B500F002F810BD0000CF
:100CA0000CB50020019000903348006840F480307B
:100CB0003149086000BF3048006800F400300090FF
:100CC0000198401C0190009818B90198B0F5A06FE8
:100CD000F1D12948006800F4003010B101200090E3
:100CE00001E0002000900098012843D123480068CB
:100CF00040F01000214908600846006820F0030019
:100D000008600846006840F0020008601A48406821
:100D1000194948600846406848600846406840F401
:100D2000806048600846406820F47C1048600846AF
:100D3000406840F4E81048600846006840F0807061
:100D4000086000BF0C48006800F000700028F9D06F
:100D50000948406820F00300074948600846406899
:100D600040F00200486000BF0348406800F00C00FB
:100D70000828F9D10CBD00000010024000200240FC
:100D8000042808D14FF0E021096941F004014FF037
:100D9000E022116107E04FF0E021096921F0040130
:100DA0004FF0E0221161704710B56FF00400FFF7BB
:100DB000E7FF0A4800680A49B0FBF1F009490870EA
:100DC0000846007800EB4001C1EBC0104FF6FF7100
:100DD00001EAC0000449088010BD0000EC010020B9
:100DE00000127A0004000020060000207047000076
:100DF00010B51348006840F001001149086008462A
:100E00004068104908400E494860084600680E498D
:100E100008400B4908600846006820F480200860FC
:100E20000846406820F4FE0048604FF41F008860C8
:100E3000FFF731FF4FF000600449086010BD00006B
:100E4000001002400000FFF8FFFFF6FE08ED00E092
:100E500010B50121084800F05BF801280AD10121F2
:100E6000054800F03DF805480068401C034908604B
:100E700000F028FB10BD0000001000400000002022
:100E80001FB501211020FFF7E5FE40F2E730ADF875
:100E900008004720ADF804000020ADF80A00ADF8C6
:100EA000060001A90D4800F05DF936208DF800001C
:100EB00000208DF801008DF8020001208DF803005C
:100EC0006846FFF773FE01221146044800F031F82E
:100ED0000121024800F007F81FBD0000001000408B
:100EE000CA430282704721B1028842F001020280A7
:100EF00004E002884FF6FE731A40028070471AB170
:100F000083890B43838102E083898B43838170470C
:100F100030B50246002000230024158A05EA0103AB
:100F2000958905EA010413B10CB1012000E000200D
:100F300030BD1AB183890B43838102E083898B43DF
:100F40008381704770B5002400220023058C4FF682
:100F5000FE7635400584028C8388048B4FF68F75AE
:100F60002C40B51E2C400D882C43751E2A400D893F
:100F70002A434D882A43144DA8420BD0134DA84252
:100F800008D0134DA84205D0124DA84202D0124DF0
:100F9000A84213D14FF6F7752A404D892A434FF6E0
:100FA000FB752A408D882A434FF6FF652B404FF68C
:100FB000FF552B408D892B43CD892B4383800483A0
:100FC000CD888586028470BD002C0140003401402C
:100FD0000040014000440140004801400A46002111
:100FE000018B4FF6F77319401143018370470000DE
:100FF00070B5002400220023058C4FF6EF763540B3
:101000000584028C8388048B48F6FF752C404FF6CC
:10101000FF452C400D884FF6FF7606EA05252C4348
:101020004FF6DF752A400D8906EA05152A434D88DB
:1010300006EA05152A43154DA84202D0144DA842D0
:101040001DD14FF67F752A404D894FF6FF7606EA8F
:1010500005152A434FF6BF752A408D8806EA051507
:101060002A434FF6FF352B404FF2FF752B408D89F9
:1010700006EA85052B43CD8906EA85052B43838047
:101080000483CD880587028470BD0000002C0140D8
:10109000003401400A460021018B4FF2FF731940D2
:1010A0004FF6FF7303EA02231943018370470000E0
:1010B00070B5002400220023058C4FF6FF663540F2
:1010C0000584028C8388848B4FF68F752C404FF6F5
:1010D000FC752C400D882C434FF6FF552A400D8996
:1010E0004FF6FF7606EA05252A434D8806EA0525D0
:1010F0002A43154DA84202D0144DA8421DD14FF2EB
:10110000FF752A404D894FF6FF7606EA05252A43EA
:101110004FF6FF352A408D8806EA05252A434EF60C
:10112000FF752B404DF6FF752B408D8906EA05159E
:101130002B43CD8906EA05152B4383808483CD8814
:101140008587028470BD0000002C014000340140FE
:101150000A460021818B4FF6F773194011438183B2
:1011600070470000002202881D4B98420ED01D4B94
:1011700098420BD0B0F1804F08D01B4B984205D05D
:101180001A4B984202D01A4B984204D14FF68F73F3
:101190001A404B881A43174B984207D0164B984277
:1011A00004D04FF6FF431A40CB881A4302808B8845
:1011B00083850B8803850A4B98420BD0094B9842D4
:1011C00008D00E4B984205D00D4B984202D00D4BE3
:1011D000984201D10B7A0386012383827047000075
:1011E000002C014000340140000400400008004091
:1011F000000C00400010004000140040004001407E
:10120000004401400048014010B540F22551024819
:1012100000F00EF810BD00000038014010B540F29B
:101220002551024800F004F810BD000000440040C1
:1012300010B50022002340F66A14A14200D100BF7D
:101240000A1201249440A3B2DC43048010BD0000C4
:1012500000B585B002210E48FFF726F9B0B1042190
:101260000B48FFF7CDF80B490948FFF7ADF86A4680
:1012700000210748FFF7A8F90098A0F2012020B943
:101280006946054800F00CF800BF00BF05B000BD7E
:1012900000640040080000320002002000BFFEE7AA
:1012A0002DE9F04104460D46A97B687B41EA002008
:1012B00000B2217C24F81100207C401C2074207C8A
:1012C00003281FDDB4F90000FEF7E4FF07460126FE
:1012D00009E034F91600FEF7DDFF80463946FEF7D7
:1012E00043FF0746761C042EF3DB4FF0814138465E
:1012F000FEF792FF0646FEF7D6FF00B2608200209E
:10130000207400BF287BE97A40EA0120132190FB7A
:10131000F1F000B2A083B4F91C10B4F91E00081A51
:10132000282804DDE08D401E00B2E0850BE0B4F912
:101330001C10B4F91E00081A10F1280F03DAE08D12
:10134000401C00B2E085B4F92E00122802DD002016
:10135000E08505E0B4F92E00002801DA1220E085CE
:10136000A08BE18D01EBC10202EB411100EB4100CA
:1013700000B22086A18BE183BDE8F08102E008C8BD
:10138000121F08C1002AFAD170477047002001E0FF
:1013900001C1121F002AFBD170470000054A1168E5
:1013A00005E00A18034B1B689A4200D200E0F8E7F8
:1013B00000BF7047000000204FF4A060FFF72EFC34
:1013C000FFF75EFDFFF7F0FC00F046F800F07CF858
:1013D00037E000201B4908802FE01A49098801EBFB
:1013E0004101194A8818032100F06CF91549098850
:1013F00001EB4101154A8818032100F0EBF90321A4
:10140000134800F06DFA0F49098801EB4101114AB8
:101410008818032100F0F0FA0A49098801EB41011C
:101420000C4A8818032100F06FFB2320FFF7B6FF5A
:1014300004480088401C0349088002480088352879
:10144000CBDBC6E7E80100200B000020AA0000204B
:10145000080000204901002038B501210820FFF7CD
:1014600009FC4FF44060ADF8000003208DF8020045
:1014700010208DF8030069461148FFF7BAFA0024DE
:101480001BE04FF480610E48FFF788FB4FF40061CA
:101490000B48FFF783FB3220FFF780FF4FF480619A
:1014A0000748FFF779FB4FF400610548FFF774FB2D
:1014B0003220FFF773FF601CC4B2052CE1DB38BD9E
:1014C000000C01407047000000B593B001210720D7
:1014D000FFF7C0FB01210920FFF7CCFB01210846E3
:1014E000FFF7A8FB01216A48FFF70EFB01216948BD
:1014F000FFF70AFB01216848FFF706FB4FF4EC7089
:10150000ADF8480018208DF84B0003208DF84A00F4
:1015100012A96248FFF76DFA5920ADF8400000208B
:10152000ADF83C00ADF84200ADF83E000FA94FF019
:101530008040FFF717FE0FA95948FFF713FE0FA9C8
:101540005848FFF70FFE6020ADF82C000120ADF8E1
:101550002E000020ADF83200ADF834000BA94FF09A
:101560008040FFF745FD0821C806FFF793FD0BA952
:101570004B48FFF7E7FC08214948FFF72FFD0BA96F
:101580004848FFF7DFFC08214648FFF727FD0BA975
:101590004448FFF72DFD08214248FFF77BFD0BA9CA
:1015A0004048FFF785FD08213E48FFF7D1FD3E4842
:1015B000FFF72CF93D4800903D4801901020029023
:1015C0002A2003900020049080200590400006907F
:1015D00080000790002008904FF4005009900020F0
:1015E0000A9069463048FFF7E3F92F481438FFF7AF
:1015F0000DF92B48343000902E48019069462A4856
:101600001438FFF7D5F928487838FFF7FFF8254850
:101610003430009028480190694623487838FFF715
:10162000C7F921483C38FFF7F1F81E4838300090E0
:101630002248019069461C483C38FFF7B9F91A481E
:101640002838FFF7E3F817483C3000901C48019019
:10165000694615482838FFF7ABF9012291020805C1
:10166000FFF74DFC012251020D48FFF748FC012213
:1016700051020C48FFF743FC012291020948FFF791
:101680003EFC0122D1020748FFF739FC13B000BD30
:10169000000230000003180000081A00000C01408E
:1016A0000004004000080040800002403800004074
:1016B000C20B00206A090020BA0400201207002093
:1016C000620200202DE9F04106460F4607EB470075
:1016D0002B2101EBC0001FFA80F800243AE000251E
:1016E0000EE07078A84000F0800008B1322000E0E1
:1016F0001920354921F81400601C84B2681CC5B259
:10170000082DEEDB00250EE03078A84000F08000C8
:1017100008B1322000E019202B4921F81400601C88
:1017200084B2681CC5B2082DEEDB00250EE0B0784F
:10173000A84000F0800008B1322000E019202249C2
:1017400021F81400601C84B2681CC5B2082DEEDBC1
:10175000781E87B2002FC2D1B078802101EA002024
:1017600008B1322000E01920174921F81400601C4C
:1017700084B205E00020144921F81400601C84B2F2
:101780004445F7DB41461148FFF730F901210F4886
:10179000FFF730F801210E48FFF7A5FB00BF4FF41B
:1017A0000030FFF7D9F80028F9D000210748FFF7EB
:1017B00021F84FF40030FFF701F800210448FFF74B
:1017C00092FBBDE8F0810000620200205800024058
:1017D000000800402DE9F04106460F4607EB4700A0
:1017E0002B2101EBC0001FFA80F800243AE000250D
:1017F0000EE07078A84000F0800008B1322000E0D0
:101800001920344921F81400601C84B2681CC5B248
:10181000082DEEDB00250EE03078A84000F08000B7
:1018200008B1322000E019202A4921F81400601C78
:1018300084B2681CC5B2082DEEDB00250EE0B0783E
:10184000A84000F0800008B1322000E019202149B2
:1018500021F81400601C84B2681CC5B2082DEEDBB0
:10186000781E87B2002FC2D1B078802101EA002013
:1018700008B1322000E01920164921F81400601C3C
:1018800084B205E00020134921F81400601C84B2E2
:101890004445F7DB41461048FFF7A8F801210E4800
:1018A000FEF7A8FF01210D48FFF71DFB00BF022036
:1018B000FFF752F80028FAD000210748FEF79AFFF8
:1018C0000220FEF77BFF00210448FFF70CFBBDE878
:1018D000F0810000BA040020080002400008004027
:1018E0002DE9F04106460F4607EB47002B2101EB9F
:1018F000C0001FFA80F800243AE000250EE070785E
:10190000A84000F0800008B1322000E019203749DB
:1019100021F81400601C84B2681CC5B2082DEEDBEF
:1019200000250EE03078A84000F0800008B1322099
:1019300000E019202D4921F81400601C84B2681CB5
:10194000C5B2082DEEDB00250EE0B078A84000F00F
:10195000800008B1322000E01920244921F8140049
:10196000601C84B2681CC5B2082DEEDB781E87B2FD
:10197000002FC2D1B078802101EA002008B13220C6
:1019800000E01920194921F81400601C84B205E018
:101990000020164921F81400601C84B24445F7DB8E
:1019A00041461348FFF722F801211148FEF722FFB4
:1019B00001211048FFF797FA00BF4FF40050FEF7DF
:1019C000CBFF0028F9D000210A48FFF78CFA00214C
:1019D0000748FEF70FFF4FF40050FEF7EFFE00211F
:1019E0000448FFF780FABDE8F081000012070020EC
:1019F00044000240000800402DE9F04106460F4631
:101A000007EB47002B2101EBC0001FFA80F80024F0
:101A10003AE000250EE07078A84000F0800008B1A0
:101A2000322000E01920354921F81400601C84B2EE
:101A3000681CC5B2082DEEDB00250EE03078A8400A
:101A400000F0800008B1322000E019202B4921F875
:101A50001400601C84B2681CC5B2082DEEDB0025A2
:101A60000EE0B078A84000F0800008B1322000E01D
:101A70001920224921F81400601C84B2681CC5B2E8
:101A8000082DEEDB781E87B2002FC2D1B0788021FE
:101A900001EA002008B1322000E01920174921F89E
:101AA0001400601C84B205E00020144921F81400E1
:101AB000601C84B24445F7DB41461148FEF796FFAF
:101AC00001210F48FEF796FE01210E48FFF70BFAA1
:101AD00000BF4FF40010FEF73FFF0028F9D00021AF
:101AE0000748FEF787FE4FF40010FEF767FE00215F
:101AF0000448FFF7F8F9BDE8F08100006A0900200A
:101B00006C000240000400402DE9F04106460F46FB
:101B100007EB47002B2101EBC0001FFA80F80024DF
:101B20003AE000250EE07078A84000F0800008B18F
:101B3000322000E01920354921F81400601C84B2DD
:101B4000681CC5B2082DEEDB00250EE03078A840F9
:101B500000F0800008B1322000E019202B4921F864
:101B60001400601C84B2681CC5B2082DEEDB002591
:101B70000EE0B078A84000F0800008B1322000E00C
:101B80001920224921F81400601C84B2681CC5B2D7
:101B9000082DEEDB781E87B2002FC2D1B0788021ED
:101BA00001EA002008B1322000E01920174921F88D
:101BB0001400601C84B205E00020144921F81400D0
:101BC000601C84B24445F7DB41461148FEF70EFF26
:101BD00001210F48FEF70EFE01218807FFF783F968
:101BE00000BF4FF00070FEF7B7FE0028F9D00021CB
:101BF0000748FEF7FFFD4FF00070FEF7DFFD002104
:101C00004FF08040FFF76FF9BDE8F081C20B002074
:101C100080000240341C0008000000200002000088
:101C20006C030008B41C0008000200202010000013
:101C30008C1300088134DB2872220A2214221E220F
:101C4000282232223C22462250225A2264226E222C
:101C5000782282228C229622A022AA22B422BE229C
:101C6000C822D222DC22E622F022FA3AFF06190C20
:101C700019121918191E1924192A19301936193C64
:101C800019421948194E1954195A19601966196CD4
:101C900019721978197E1984198A1990199671097F
:101CA000FDA0093EA084A24A040009000102030429
:041CB0000607080912
:0400000508000145A9
:00000001FF
